:04000000BBEF2FF033
:105E5700381200C69A120020EC30F0800B120001B5
:105E67006E01C0ADFF1200066E0650800F59EF2F6E
:105E7700F0066E0650080F59EF2FF06DEC2FF0C5A6
:105E870080C5A01200FDD76DEC2FF0C584C5A41204
:105E970000FDD76DEC2FF0C582C5A21200FDD7011A
:105EA7000E59EC2FF0000E37EF2FF0056E2FEC2F69
:105EB700F0E806FCE005C003F0800E9FEF2FF00529
:105EC7006E2FEC2FF0E806FCE005C003F0400E9FB4
:105ED700EF2FF0C7A403D0016A012A01D0016AC5D8
:105EE700501F0B0110F6E1120006D863EC2FF006E5
:105EF7002A02D8FAE112000650D96EDA6ADF501288
:105F070000016E3F0EC716C66AC56AC686C78E945D
:105F1700869488C68A01C0C8FF1200056E41EC2F1F
:105F2700F0055035EC30F0035035EC30F0045035C7
:105F3700EC30F047EF2FF0046E41EC2FF0780E3580
:105F4700EC30F0045035EC30F0035035EC30F047CE
:105F5700EF2FF0036E026A3A0E036005D02F0E038F
:105F67006402D0010E026E02C001F0013012005728
:105F77000EF66E5E0EF76E000EF86E0900F5CFDABC
:105F8700F0000EF86E000116EF36F0076E2C0E03C8
:105F97006E07C004F0A60E91EC2FF02D0E036E06CF
:105FA700C004F0A60E91EF2FF00150021003100469
:105FB7001002E0800E041A01C001F002C002F003D3
:105FC700C003F004C004F01200046A056A09D00394
:105FD7000E036E980EE82EFED7032EFCD7044A0553
:105FE7002A0150045C02500558F2E31200015003E5
:105FF70002F3CF05F0F4CF06F001500402F3500688
:106007002602500302F350062605C001F006C0021F
:10601700F01200026E080E036E046AD89002340470
:1060270034046ED89002360150045C02E301500438
:106037005E032EF3D70450120041EC2FF0780E3593
:10604700EC30F0800E35EC30F04DEC2FF0790E355A
:10605700EC30F0000E9DEC30F0046E47EC2FF004AE
:10606700501200026E6DEC2FF002C0C9FFC6BE12BF
:1060770000C6500F0B080A05E0C6500F0B0B0AD8D5
:10608700A41200C7B0FED76DEC2FF0C55012000662
:106097006E086A055014E0010E076E03D0D890050C
:1060A70036072A05AEFBD7D89008360550065C039D
:1060B700E30550065E0880D8900532072EF4D7080E
:1060C700501200066E380E061807E1065059EC2FDD
:1060D700F0380E0001DA6F380C3C0E59EC2FF03A0D
:1060E7000E59EC2FF0065059EC2FF03C0E59EC2FBF
:1060F700F03C0E0001DA6F3C0C800E501A49C03993
:10610700F04AC03AF04BC03BF04CC03CF04DC03DAC
:10611700F04EC03EF04FC03FF050C040F058EC3A50
:10612700F039C049F03AC04AF03BC04BF03CC04C94
:10613700F01200026E6DEC2FF0C6500F0B080A0428
:10614700E0C6500F0B0B0A01E1C586C7A0FED7C9F1
:10615700CF03F06DEC2FF0020405E1C59AC588C5A1
:10616700B8FED704D0C58AC588C5B8FED703501274
:10617700003A0E59EC2FF0090E59EC2FF0060E5984
:10618700EC2FF01E0E59EC2FF0390E59EC2FF01BA7
:106197000E59EC2FF06E0E59EC2FF0560E59EC2FCE
:1061A700F07A0E59EC2FF00001DA5159EC2FF05329
:1061B700EC2FF0070E3CEF2FF0ACA2FED702C0F693
:1061C700FF03C0F7FFF86A050EF76403D00800F570
:1061D7005001D017D833EC2FF00250046E0350054E
:1061E7006E024A032A04C0F6FF05C0F7FFF86A05E6
:1061F7000EF76403D00800F55001D003D80009DC7E
:10620700E11200F6CFE9FFF7CFEAFFEF50120005E2
:106217005006100710081023E0010E096E06D0D8AB
:10622700900536063607360836092A08AEF8D70528
:1062370050015C065002580750035808500458088C
:10624700E30550015E0650025A0750035A085004EE
:106257005AD8900832073206320532092EE8D7019C
:10626700C001F002C002F003C003F004C004F01242
:1062770000066A02AE06D0016C021ED8B0022A01DF
:106287000E066E04AE04D0036C041ED8B0042A03B5
:1062970050041017E0010E056E04D0D890033604A1
:1062A70036052A04AEFAD70350015C04500258049D
:1062B700E30350015E0450025AD8900432033205BA
:1062C7002EF2D7065004E0016C021ED8B0022A0154
:1062D700C001F002C002F01200096A0A6A0B6A0CD8
:1062E7006A055006100710081029E0010E0D6E060A
:1062F700D0D89005360636073608360D2A08AEF888
:10630700D7D89009360A360B360C360550015C068D
:10631700500258075003580850045809E305500124
:106327005E0650025A0750035A0850045A0980D88B
:106337009008320732063205320D2EE2D709C00126
:10634700F00AC002F00BC003F00CC004F012000CFE
:106357006A0AAE06D0096C0A1ED8B00A2A010E0CCA
:106367006E08AE06D0076C081ED8B0082A010E0CBE
:106377001A0D6A0E6A09500A101BE0010E0B6E0413
:10638700D0D89009360A360B2A0AAEFAD7D8900D1C
:10639700360E360950075C0A50085805E3095007BE
:1063A7005E0A50085A0D80D8900A3209320B2EEE39
:1063B700D70C5004E00D6C0E1ED8B00E2A0DC00786
:1063C700F00EC008F01200096A0A6A800E03140B67
:1063D7006E7F0E041438D804E1016A026A036A0466
:1063E7006A096A0A6A800E07140B6E7F0E08142B5F
:1063F700D804E1056A066A076A086A04AE09D0018B
:106407006C021ED8B0022A031ED8B0032A800E04DD
:106417005608AE09D0056C061ED8B0062A071ED846
:10642700B0072A800E0856800E041A081A05500174
:106437005C06500258075003580850045802E2D827
:10644700901200D88012000C6E09500A100B100C25
:10645700101200333434343A6E3A5005E1316A325F
:106467006A336A346A120031C035F032C036F0330D
:10647700C037F034C038F0200E05D0D89038323706
:106487003236323532E82EF9D73550396E338E34FD
:106497006A960E3A5E3AAE0CD03A50800A970FDEF3
:1064A700E3D89034323332323231323A3EF9D70CB4
:1064B700D01F0E3A6407D0D2D7D890313632363350
:1064C7003634363A063A50F8E1395008E0341E338C
:1064D7001E321E316C000E32223322342231C0317B
:1064E700F032C032F033C033F034C034F0120062FF
:1064F700C001F063C002F064C003F065C004F0019E
:106507000EF7EC33F040D835EC35F049C074F04A5B
:10651700C075F04BC076F04CC077F066C001F067ED
:10652700C002F068C003F069C004F0010EF7EC3355
:10653700F02AD835EC35F049C078F04AC079F04BED
:10654700C07AF04CC07BF06AC001F06BC002F06CFF
:10655700C003F06DC004F0010EF7EC33F014D8352A
:10656700EC35F049C07CF04AC07DF04BC07EF04C62
:10657700C07FF020EE74F000EE62F00B0EDBCFEB85
:10658700FFE806FCE2120001C049F002C04AF0032E
:10659700C04BF004C04CF04D6A4E6A7A0E4F6E48FD
:1065A7000E506E480C033404340E6E0E5005E10194
:1065B7006A026A036A046A1200073408340D6E0D12
:1065C70050F6E0038E046A078E086A096A0A6A0BA6
:1065D7006A0C6A7F0E0E5E0D50A00F0E5E200E0D28
:1065E7006E38D80550015C0650025807500358080A
:1065F70050045809E30550015E0650025A0750033C
:106607005A0850045A0980D89001360236033604D6
:10661700360D2EE6D70EAE0CD00E50800A9F0FC750
:10662700E3D8900C320B320A3209320E3EF9D70802
:10663700D01F0E0E6403D0BBD70CD80E060E50FC2D
:10664700E109C001F00AC002F00BC003F00CC0045E
:10665700F01200D89009360A360B360C3612000AAB
:106667006A08AE0AD0081E071E061E056C000E0635
:106677002207220822010E0A6E04AE0AD0041E0366
:106687001E021E016C000E022203220422010E0AC2
:106697001A0B6A0C6A0D6A0E6A0550061007100875
:1066A7001029E0010E096E06D0D890053606360788
:1066B700360836092A08AEF8D7D8900B360C360DAF
:1066C700360E360550015C0650025807500358082D
:1066D70050045809E30550015E0650025A0750035B
:1066E7005A0850045A0B80D89008320732063205F0
:1066F70032092EE2D70A5008E00E1E0D1E0C1E0BA3
:106707006C000E0C220D220E220BC001F00CC002F1
:10671700F00DC003F00EC004F0120003C009F00A28
:106727006A0B6A0234093601E30A800950116E11B7
:106737005005E1016A026A036A046A120007C00988
:10674700F00A6A0B6A0634093601E30A8009501019
:106757006E1050EFE0028E036A068E076A0C6A0D10
:106767006A0E6A0F6A7F0E115E1050980F115E183D
:106777000E106E33D80550015C06500258075003BF
:106787005807E30550015E0650025A0750035A0C9A
:1067970080D890013602360336102EEBD711AE0C97
:1067A700D01150800A970FC5E3D8900F320E320DE3
:1067B700320C32113EF9D708D0170E116403D0B945
:1067C700D70CD811061150FCE10CC001F00DC00226
:1067D700F00EC003F00FC004F01200D8900C360D75
:1067E700360E360F361200096E09501CE004AE1A39
:1067F700D001C005F002C006F003C007F004C008CE
:10680700F0051E061E071E081E052A000E06220793
:1068170022082205C00BF006C00CF007C00DF008D7
:10682700C00EF008D001C00BF002C00CF003C00D81
:10683700F004C00EF0015002100310041005E1012E
:106847006A026A036A046A1200960E0A6E02D00A86
:106857002A4CD8056A066A076AFE0E0E1440D80845
:10686700E0F6D70A2A0B2A000E0C220D220E223D33
:10687700D8056A066A076A0E5032D807E0F2D70AC7
:1068870006D8900B360C360D360E360DBE03D002E9
:106897000E0A60F5D70AB002D07F0E0D16D8900AFF
:1068A700320AC005F0066A076A086A05C008F007D9
:1068B7006A066A056A05500B1206500C1207500D3E
:1068C7001208500E12095002E004BE0E8E0BC001D2
:1068D700F00CC002F00DC003F00EC004F012000867
:1068E7006E05500610071008101200D8900E320DD2
:1068F700320C320B321200386E6D0E386442D00AF9
:106907000E056E640E016E38500DEC30F04BEC3016
:10691700F07BD8D8902C362D36240E2C26000E2D41
:106927002257D8BEEC39F0640E056E38504BEC3068
:10693700F071D8480E57D8CCEC39F019EC38F0790B
:10694700D80A0E016E38500DEC30F05ED847D840AB
:10695700D8BEEC39F077D819EC38F00FC030F0100A
:10696700C031F011C032F012C033F030C00FF03137
:10697700C010F032C011F033C012F06DD819EC38E6
:10698700F03AD00A0E38641BD0016E38500DEC3047
:10699700F03BD824D81DD8BEEC39F00A0E056E3866
:1069A700504BEC30F037D8240E1DD8CCEC39F01909
:1069B700EC38F03FD847D84FD819EC38F01CD0380E
:1069C7005032D8F420CCEC39F046D819EC38F01313
:1069D700D0B70E2C24F66E7E0E2D201200D8902CE8
:1069E700362D3612002E26000E2F22B70E2E24F635
:1069F7006E7E0E2F2012000FC028F010C029F01154
:106A0700C02AF012C02BF012002C6E2D6AD8902CE1
:106A1700362D3612002E6E2F6AD8902E362F36D886
:106A2700902E362F361200040DB70EF324F66E7E25
:106A37000E12000FC034F010C035F011C036F0123E
:106A4700C037F0120034C00FF035C010F036C01157
:106A5700F037C012F01200136A146A156A3F0E1657
:106A67006E3F0C4C50800B556E4C504C24606E4B57
:106A7700BE6080605005E0602801E1CFD84B8E03EF
:106A8700D0496A4A6A4B6A4C6A5050800B551A5073
:106A9700505024616E4FBE6180615008E061280448
:106AA700E14D6A4E6A4F6A506A4F8E03D04D6A4E67
:106AB7006A4F6A506A4D504E104F1050100EE1AD9C
:106AC700D8800E4B127F0E4C1249C049F04AC04A7B
:106AD700F04BC04BF04CC04CF01200605005E14940
:106AE7006A4A6A4B6A4C6A1200615060C051F052A0
:106AF7006A515E000E525A7F0E51245A6E000E5292
:106B0700205B6E49C056F04AC057F04BC058F04C56
:106B1700C059F083D85C6A5D6A5E6A5F6A616A1B06
:106B2700D0615006E0D890563657365836593668F1
:106B3700D84D50565C4E5057584F50585850505992
:106B47005809E35F8C4D50565E4E50575A4F505878
:106B57005A5050595A612A190E6164E2D756505754
:106B6700105810591006E05C8004D04AD85A06D84D
:106B7700A05B064BAEFAD7616A5FAE13D05C50518B
:106B87006E5D50526E5E50536E7F0E5F14546E51A1
:106B97005052105310541003E0010E616E02D04999
:106BA700B0FBD761500EE0492A000E4A224B224C17
:106BB700224CA007D04C344C324B324A3249325A1D
:106BC7004A5B2A5BBE07D05B5002E15A2803E35BAE
:106BD7006A5A6823D85BBE04D05B5006E15A0404A6
:106BE700E25A6A5B6A1AD8556A5AC060F060A00216
:106BF700D04B8E01D04B9ED89060304C6E55506371
:106C0700D7D89049364A364B364C365FBE4980D87E
:106C1700905C365D365E365F361200496A4A6A4BCB
:106C27006A4C6A1200720ED36E0F0EC16E070EB455
:106C37006E926A9368B90E946E260EAC6E900EAB88
:106C47006E0A0EB86E100EAF6E2DEC2FF0130E8479
:106C5700EC2FF0820E0001A76FDD0EE82EFED7A7FE
:106C67002FFCD700D0040E066E010EC9EC2FF0BC26
:106C7700EC30F0040E3CEC2FF0380E65EC30F02CC5
:106C8700EC2FF0830E026E7F0E036EE0EC30F06B9C
:106C97000E026E7F0E036EE0EC30F0A60E07EC37A7
:106CA700F020EEBCF0110EEBCFDBFFE806FCE22094
:106CB700EEBCF000EE62F0110EDBCFEBFFE806FC56
:106CC700E27BEC32F020EECEF00B0EEBCFDBFFE8F1
:106CD70006FCE2A80E516EAB0E526E7F0E86D88769
:106CE700EC3BF08DD8E0EC30F0A80E516EB90E52A7
:106CF7006E7F0E5DD887EC3BF082D8E0EC30F0A8D1
:106D07000E516EC70E526E7F0E66D887EC3BF0773A
:106D1700D8E0EC30F0A80E516E9B0E526E7F0E51EC
:106D2700D887EC3BF06CD8E0EC30F0A80E516EE061
:106D37000E526E7F0E5AD887EC3BF0000E37EC2FC1
:106D4700F0A80E066E78EC2FF0A80E516EEA0E52E0
:106D57006E7F0E2DD887EC3BF0200E37EC2FF0A876
:106D67000E066E78EC2FF0A80E516EF40E526E7F61
:106D77000E32D887EC3BF0400E37EC2FF0A80E060A
:106D87006E78EC2FF0A80E516ED50E526E7F0E194D
:106D9700D887EC3BF0600E37EC2FF0A80E066E7824
:106DA700EC2FF0026A010E016EE8EC2FF076D75354
:106DB7006ED2C054F0D3C055F0D4C056F0D5C057EA
:106DC700F01200536ECAC054F0CBC055F0CCC05679
:106DD700F0CDC057F01200536ED6C054F0D7C0554F
:106DE700F0D8C056F0D9C057F01200536ECEC05439
:106DF700F0CFC055F0D0C056F0D1C057F01200A860
:106E07000E026E036A12000001936F41EC2FF0002F
:106E170001935135EC30F0060E35EC30F04DEC2F88
:106E2700F00001932935EC30F00001946BF9D8019B
:106E37000E9DEC30F0DF6E0001942B090E9465F681
:106E4700D7942BEED8000E9DEC30F0DF6E47EC2F79
:106E5700F083C074F0D5D882C078F0C7D800019508
:106E67006F75507910966F76507A10976F77507BC1
:106E770010986F86C074F0C4D885C078F0B6D899DA
:106E87006F755079109A6F76507A109B6F77507B99
:106E9700109C6F89C074F0B4D888C078F0A6D89DCC
:106EA7006F755079109E6F76507A109F6F77507B71
:106EB70010A06F95C001F096C002F097C003F0983C
:106EC700C004F0A8D833EC33F001C095F002C096A7
:106ED700F003C097F004C098F099C001F09AC0027F
:106EE700F09BC003F09CC004F095D833EC33F0015D
:106EF700C099F002C09AF003C09BF004C09CF09DBB
:106F0700C001F09EC002F09FC003F0A0C004F08251
:106F1700D833EC33F001C09DF002C09EF003C09F50
:106F2700F004C0A0F000018051746E8151A16F740C
:106F3700C0A2F0CD0E4D6ECC0E4E6E100E4F6EC130
:106F47000E506E000E3D6E800E3E6EE70E3F6EC415
:106F57000E406E20EEA1F0DECF01F0DDCF02F00093
:106F67000E02BEFF0E036E046E010EF7EC33F00146
:106F7700C039F002C03AF003C03BF004C03CF058FF
:106F8700EC3AF039C049F03AC04AF03BC04BF03C0C
:106F9700C04CF035EC35F049C08FF04AC090F04B4B
:106FA700C091F04CC092F08FC039F090C03AF09188
:106FB700C03BF092C03CF03D6A3E6AC80E3F6E414E
:106FC7000E406E58EC3AF039C0A3F03AC0A4F03B3B
:106FD700C0A5F03CC0A6F020EE95F000EE62F011DF
:106FE7000EDBCFEBFFE806FCE21200796A7A6A7BD8
:106FF7006A78C07BF07A6A796A786A745078101276
:1070070000756A766A776A75C077F074C076F0752E
:107017006A746A1200056A100E066E076A086A101B
:107027000C9451800FD96EDA6A12001250800B1B34
:107037006E12501224216E11BE2180215005E021CD
:107047002801E102D9118E01D0FFD81650800B1B01
:107057001A165016241C6E15BE1C801C5005E01C09
:107067002801E1E8D8158E01D0E5D81C5002E021AF
:107077005005E10F6A106A116A126A120015500F63
:1070870002B1D81D6E1E6A1F6A206A2750226E231E
:107097006A246A256A14501002A5D8B2D813501171
:1070A70002A1D8AED8A5D8135010029CD8B5D814D1
:1070B700500F0298D8B1D89CD813500F0293D8AC70
:1070C700D8155010028FD8AFD8145011028BD8ABF7
:1070D700D81550110287D8176E2750186E196A1ADB
:1070E7006A19C01AF018C019F017C018F0176A17F4
:1070F70050222618502322195024221A50252220C4
:107107005022269DD875D81C5021C017F0186A1731
:1071170026000E1822820E1724266EFF0E1820272F
:107127006E0FD0D890223623362436253620BE223D
:1071370080D8901D361E361F3620362606D8A02743
:107147000624AEEFD71C6A20AE13D01D50176E1E53
:1071570050186E1F50196E7F0E20141A6E17501894
:107167001019101A1003E0010E1C6E02D022B0FB9A
:10717700D71C500BE0222A63D825A007D025342539
:1071870032243223322232264A272A27BE0AD02720
:107197005002E1262806E3226A236A800E246E7FC6
:1071A7000E15D027BE04D0275008E1260406E22298
:1071B7006A236A246A256A1B6A0AD026C021F07FDF
:1071C7000E2416256A21B0248ED8902130256E1BF7
:1071D70050251222C00FF023C010F024C011F02553
:1071E700C012F01200F3CF26F0F4CF27F02650128A
:1071F700001FC020F01EC01FF01DC01EF01D6A1228
:10720700001D26000E1E221F2220222750222600A4
:107217000E232224222522000C1D2627501E220081
:107227000E1F222022000C222627502322000E2484
:10723700222522000C136A146A156A166A120000C6
:107247000E232224222522000C0F6A106A116A12CB
:107257006A1200306E30AE46D0306C3050800A1261
:107267000F24E313D90DD901BE02063CEC31F01708
:10727700D9ABEC31F09BD8FED87DD80A6A640E0AE8
:10728700D907BE0806ABEC31F0D890C2D8F3D88046
:10729700D819EC38F0A6D801BE02063CEC31F091C3
:1072A700D8C7D868D819EC38F093D03050800A7511
:1072B7000F15E30A6A0A0EEED807BE0806ABEC31D3
:1072C700F075D8D8D865D8C9D801BE02063CEC31CC
:1072D700F078D8AED84FD819EC38F07AD0305017AC
:1072E700EC35F0ACD03050800A120F24E3CED8C86A
:1072F700D801BE02063CEC31F0D2D8ABEC31F056E7
:10730700D8B3D838D80A6A640EC5D807BE0806AB02
:10731700EC31F0D8907DD8A8D83BD819EC38F0617B
:10732700D801BE02063CEC31F04CD87CD823D819E2
:10733700EC38F04ED03050800A750F15E30A6A0A10
:107347000EA9D807BE0806ABEC31F030D88DD8208F
:10735700D884D801BE02063CEC31F033D863D80A92
:10736700D819EC38F035D03050040DEB0EF324F675
:107377006E7E0E64D0F76E0900F5CF13F00900F5A5
:10738700CF14F00900F5CF15F00A00F5CF16F0126B
:1073970000F76E0900F5CF0FF00900F5CF10F009DF
:1073A70000F5CF11F00A00F5CF12F01200D89007C0
:1073B700360836D89007360836240E0726000E08FA
:1073C70022000CD89001360236D8900136023612C8
:1073D700000FC028F010C029F011C02AF012C02BEE
:1073E700F012000FC02CF010C02DF011C02EF012BB
:1073F700C02FF02CC00FF02DC010F02EC011F02FB1
:10740700C012F0046A0A0E036E3050016E026A124F
:107417000007360836D89007360836480E07260084
:107427000E0822000CEB0E0124F66E7E0E022012CF
:1074370000B70E0124F66E7E0E02201200F420F72C
:107447006E0900F5CF28F00900F5CF29F00900F5FE
:10745700CF2AF00A00F5CF2BF01200046A0A0E03B8
:107467006E3050016E026A1200EB0E0724F66E7E34
:107477000E08201200B70E0724F66E7E0E082012A3
:1074870000036E3050016E026A12000A6A0A0E0982
:107497006E046A640C096E3050076E086A120001A8
:1074A700C007F002C008F012003C50800B456E3C4C
:1074B700503C24476E3BBE4780475005E0472801B4
:1074C700E10DD93B8E03D0396A3A6A3B6A3C6A4080
:1074D70050800B466E451801E0458C4050402446CD
:1074E7006E3FBE4680465008E0462804E13D6A3EAE
:1074F7006A3F6A406A3F8E03D03D6A3E6A3F6A40F0
:107507006A4750465C22E245AC02D0800E451A47D6
:10751700C048F046C047F048C046F039C048F03D83
:10752700C039F048C03DF03AC048F03EC03AF04894
:10753700C03EF03BC048F03FC03BF048C03FF03C86
:10754700C048F040C03CF048C040F0486A47504649
:10755700C041F0426A415E000E425A42BE18D04214
:107567005003E11A0E415C13E3C9D8010ED8B400E9
:107577000E486EB4D846C047F00DD048A005D0D805
:107587009048300109486E02D0D89048329ED846BC
:1075970050475CF3E345BC19D0475001E1AAD03D01
:1075A7005039263E503A223F503B2240503C223C25
:1075B700A057D048A006D0D8904832485001094873
:1075C7006E02D0D890483281D84BD03D50395C3EBE
:1075D700503A583F503B583C50800A416E405080CB
:1075E7000A41581FE239503D5C416E3A503E5842BD
:1075F7006E3B503F58436E3C504058446EFF0E411F
:1076070024396EFF0E42203A6EFF0E43203B6EFF79
:107617000E44203C6E800E451A486C48500AE163C0
:10762700D808D03D50395E3E503A5A3F503B5A40F9
:10763700503C5A64D813E1485011E15BD0D89039D7
:10764700363A363B363C3648BE398048A002D0D859
:107657008001D0D8904836475001E047063BAEEE50
:10766700D7466A48AE0AD048C041F07F0E4116039C
:10767700E0010E466E02D039B0FBD746500BE0331F
:10768700D83CA008D03C343C323B323A32393247FE
:107697002801E0472A472802E0475004E11FD8475E
:1076A7005001E1456A47A002D03B8E01D03B9ED8EE
:1076B7009047303C6E45BE3C8E39C039F03AC03AEF
:1076C700F03BC03BF03CC03CF0120039B0488E3C68
:1076D700343C323B323A323932472A1200396A3A5D
:1076E7006A3B6A3C6A1200392A000E3A223B223C66
:1076F70022000C396A3A6A3B6A3C6A120039503AEE
:10770700103B103C101200540E686E1FD3250E7BE1
:107717001807E05150D96EDA6A7BC0DFFF512A158E
:10772700D3736A746A7C6A7D6A07D07C8003D07CD5
:107737008201D07C84524A532A2FDB200AF6E00BC1
:107747000AF6E01B0AF6E07CB27C9026DBADEC2F54
:10775700F021E3736A746A73C001F074C002F0A386
:10776700DBFAEC2FF001C073F002C074F0D00E58B2
:107777006E596812DB5A6E5B6A58505A2659505B2D
:10778700225A5073265B507422524A532A05DBADA6
:10779700EC2FF0E1E201DB2E0A1EE17D8C524A5309
:1077A7002A796A7A6A13D079C001F07AC002F07B2D
:1077B700DBFAEC2FF0F1DA0126000E0222D00E01DF
:1077C70024796EFF0E02207A6E524A532AE5DAAD0B
:1077D700EC2FF007E3E8D7796A7A6A7D8802D07DD3
:1077E7008408D052C0F6FF3EDB01E1B4D2660AF747
:1077F700E0ACD2070E7D1401E11DD27DA803D07A3B
:107807006A060E796E6850D96EDA6ADECF75F0DED9
:10781700CF76F0DECF77F0DECF78F0040E682678EB
:10782700AE14D075C001F076C002F077C003F078CF
:10783700C004F0D8EC2FF001C075F002C076F00359
:10784700C077F004C078F0030E7C12716A726A1C6C
:10785700DB5BE077347834820F716E726AFF0E72E9
:10786700227106D8A0720671C001F072C002F0043E
:107877006A030E036EFAEC2FF001C071F002C072BA
:10788700F071C007F072C008F00A6A0A0E096EAB01
:10789700EC31F007C071F008C072F072AE03D0711E
:1078A70006D8A07206715000082DEC39F0E4DA6DA5
:1078B700C00FF06EC010F06FC011F070C012F0B7BB
:1078C700DA19EC38F00FC06DF010C06EF011C06F10
:1078D700F012C070F088DA056A066A800E076E3FFC
:1078E7000E086EE7EC31F004E27106D8A072060CC0
:1078F700D07ADA056A066A200E076E410E086EE72F
:10790700EC31F002E3714A722A7ABE05D07A502030
:10791700E10D0E795C1DE275C039F076C03AF0775B
:10792700C03BF078C03CF079507FEC34F028C03D84
:10793700F029C03EF02AC03FF02BC040F058EC3A87
:10794700F039C075F03AC076F03BC077F03CC078AC
:10795700F072BE05D0725014E10A0E715C11E29408
:10796700DA43E077DA2DEC32F0315032103310344D
:10797700103BE172BE39D0725003E1020E715C34E4
:10798700E332DA5F0E056E700E066E890E076E40E3
:107997000E086EE7EC31F0F70ED8B0F80E7126FF3F
:1079A7000E722271502DEC39F066DA75C001F0764F
:1079B700C002F077C003F078C004F06DC005F06E28
:1079C700C006F06FC007F070C008F0D6EC32F001C7
:1079D700C069F002C06AF003C06BF004C06CF075B8
:1079E7006A766A776A786A2BD034DA2DEC32F02817
:1079F700DA75C049F076C04AF077C04BF078C04CD2
:107A0700F069C001F06AC002F06BC003F06CC004FB
:107A1700F0000EF7EC33F001C04DF002C04EF0035A
:107A2700C04FF004C050F080EC30F049C075F04A08
:107A3700C076F04BC077F04CC078F0716A726A017B
:107A47000E7B6EB1D9F550695C0900F5506A58098B
:107A570000F5506B580900F5506C5804E37B2A0A6F
:107A67000E7B18EFE17BC058F0596A58BE5906796A
:107A77005058267A50592271505826725059225818
:107A870050735E5950745A79507A1003E07306D8D0
:107A9700A0740604DA03E07306D8A074067CA42554
:107AA700D07CA20FD07CB003D0616A2B0E02D061CC
:107AB7006A2D0E606E5150D96EDA6A60C0DFFF51D1
:107AC7002A08D07CA006D0ADD9FAD796D97306D8A4
:107AD700A0740674BE31D07450F8E173042DE3F539
:107AE700D7A0D9512A7306D8A0740674BE04D074DF
:107AF70050F7E17304F5E27CA20FD07CB003D063AA
:107B07006A2B0E02D0636A2D0E626E5150D96EDA5F
:107B17006A62C0DFFF512A10D07CA00ED05150D925
:107B27006EDA6A200E07D01BD970EC31F046D90BFC
:107B3700EC31F069D9DF6EEED77B067B2805E0F3E1
:107B4700D75BD97106D8A0720672BE04D07250F8FE
:107B5700E17104F6E27ABE08D07A5003E1090E79A2
:107B67005C03E3080E7B6E02D079C07BF07B507913
:107B77005E000E7BBEFF0E7A5A7B5006E05150D94D
:107B87006EDA6A2E0EDF6E512A7B502DEC39F02803
:107B9700C05CF029C05DF02AC05EF02BC05FF047E3
:107BA700D95CC00FF05DC010F05EC011F05FC0126D
:107BB700F019EC38F00FC031F010C032F011C033BB
:107BC700F012C034F02DEC32F03BD927D0C8D87072
:107BD700EC31F0F3D80BEC31F016D9DF6E512A698E
:107BE700C001F06AC002F06BC003F06CC004F0DBA8
:107BF700D8F5CF05F00900F5CF06F00900F5CF0756
:107C0700F00A00F5CF08F00BEC31F001C069F00283
:107C1700C06AF003C06BF004C06CF07B067B2805DC
:107C2700E0D5D7EAD87906D8A07A0679507A100134
:107C3700E18CD0F7D779507A1007E169506A106B59
:107C4700106C1002E1794A7A2A24D979507B5C7A40
:107C570050800A585803E279C07BF00FD07A5080E1
:107C67000A586E7B50795C800E7BBE7F0E58580594
:107C7700E27B50796E7A6A79BE7A06735074100582
:107C8700E00DD903E07306D8A074067DAC10D0735D
:107C970050795C7A50800A586E7450800A5858059B
:107CA700E27950735E7A50745A02D0736A746AF13B
:107CB700D873507B5C7450800A585807E27B507326
:107CC7005E000E7BBEFF0E745A02D0736A746A7C24
:107CD700A41DD07CA20FD07CB003D0656A2B0E0206
:107CE700D0656A2D0E646E5150D96EDA6A64C0DFB2
:107CF700FF512A04D07CA002D094D8FAD7735074CD
:107D07001024E07AD87306D8A07406F8D773507495
:107D17001008E087D8512A7306D8A07406735074E8
:107D270010F8E17CA20ED07CB003D0676A2B0E025C
:107D3700D0676A2D0E666E5150D96EDA6A66C0DF5B
:107D4700FFEDD47CA002D06DD8E9D452C0F6FF8AEB
:107D5700D801E0DCD45150D96EDA6ADF6A000C69C9
:107D6700C001F06AC002F06BC003F06CC004F07B86
:107D770050040D1F0EF324F66E7F0EF420F76E09E4
:107D870000F5CF05F00900F5CF06F00900F5CF079C
:107D9700F00A00F5CF08F0120052C0F6FF53C0F703
:107DA700FF0800F55012007B50040D1F0EF324F658
:107DB7006E7F0EF420F76E0900120001C06DF0020D
:107DC700C06EF003C06FF004C070F06DC001F06EBC
:107DD700C002F06FC003F070C004F00A0E056E0613
:107DE7006A076A086A0A0C6DC001F06EC002F06F7C
:107DF700C003F070C004F012005150D96EDA6A3037
:107E07000EDF6E512A300C01C06DF002C06EF00318
:107E1700C06FF004C070F05150D96EDA6A6D5030FF
:107E27000F12005150D96EDA6A200EDF6E200C75E2
:107E3700C013F076C014F077C015F078C016F012B2
:107E47000031C069F032C06AF033C06BF034C06CE7
:107E5700F0120075C031F076C032F077C033F07899
:107E6700C034F0120053C0F7FF524A532A0800F5F6
:107E7700CF7BF07B50120028C06DF029C06EF02A2E
:107E8700C06FF02BC070F012007550761077107825
:107E9700101200800E7BBE7F0E586E12007CC058F9
:107EA700F0030E5816030C046A0A0E036E0A0C0040
:107EB7000000803FCDCCCC3D0AD7233C6F12833ADC
:107EC70017B7D138ACC52737BD37863595BFD633F9
:107ED70077CC2B325F708930FFE6DB2E08E53C1E3E
:107EE7006042A20D0000803F000020410000C84210
:107EF70000007A4400401C460050C34700247449E0
:107F07008096184B20BCBE4C286B6E4EF90215505C
:107F1700EC78AD60CAF24971010000000A00000068
:107F270064000000E803000010270000A08601009D
:107F370040420F008096980000E1F50500CA9A3B81
:107F4700ECF34A48359595C717C1DC45FDDB6DC392
:107F570072B333402B3401487F9DB045E7FFD942C8
:107F67000000803F4C53464F202020202020202017
:107F77002020205055432D52696F0A004144584C28
:107F87003335355A2073656E736F72207465737459
:107F970065720A0054656D703A202530362E3266B8
:107FA700B0430A00583A20252B30382E3566472033
:107FB7002000593A20252B30382E356647202000DF
:107FC7005A3A20252B30382E356647202000543A60
:107FD7002B252B362E3266430058252B30372E346F
:107FE70066470059252B30372E346647005A252B14
:087FF70030372E34664700000C
:020000040020DA
:08000000FFFFFFFFFFFFFFFF00
:020000040030CA
:0E000000FF08191EFF8180FF0FC00FE00F40A8
:00000001FF
